{
  "address": "0x7C42cd8F349DB6F4510D3Fb84C1D83630632Fd4D",
  "abi": [
    {
      "inputs": [
        {
          "internalType": "string",
          "name": "name",
          "type": "string"
        },
        {
          "internalType": "string",
          "name": "symbol",
          "type": "string"
        }
      ],
      "stateMutability": "nonpayable",
      "type": "constructor"
    },
    {
      "anonymous": false,
      "inputs": [
        {
          "indexed": true,
          "internalType": "address",
          "name": "owner",
          "type": "address"
        },
        {
          "indexed": true,
          "internalType": "address",
          "name": "spender",
          "type": "address"
        },
        {
          "indexed": false,
          "internalType": "uint256",
          "name": "value",
          "type": "uint256"
        }
      ],
      "name": "Approval",
      "type": "event"
    },
    {
      "anonymous": false,
      "inputs": [
        {
          "indexed": true,
          "internalType": "address",
          "name": "from",
          "type": "address"
        },
        {
          "indexed": true,
          "internalType": "address",
          "name": "to",
          "type": "address"
        },
        {
          "indexed": false,
          "internalType": "uint256",
          "name": "value",
          "type": "uint256"
        }
      ],
      "name": "Transfer",
      "type": "event"
    },
    {
      "inputs": [
        {
          "internalType": "address",
          "name": "owner",
          "type": "address"
        },
        {
          "internalType": "address",
          "name": "spender",
          "type": "address"
        }
      ],
      "name": "allowance",
      "outputs": [
        {
          "internalType": "uint256",
          "name": "",
          "type": "uint256"
        }
      ],
      "stateMutability": "view",
      "type": "function"
    },
    {
      "inputs": [
        {
          "internalType": "address",
          "name": "spender",
          "type": "address"
        },
        {
          "internalType": "uint256",
          "name": "amount",
          "type": "uint256"
        }
      ],
      "name": "approve",
      "outputs": [
        {
          "internalType": "bool",
          "name": "",
          "type": "bool"
        }
      ],
      "stateMutability": "nonpayable",
      "type": "function"
    },
    {
      "inputs": [
        {
          "internalType": "address",
          "name": "account",
          "type": "address"
        }
      ],
      "name": "balanceOf",
      "outputs": [
        {
          "internalType": "uint256",
          "name": "",
          "type": "uint256"
        }
      ],
      "stateMutability": "view",
      "type": "function"
    },
    {
      "inputs": [],
      "name": "decimals",
      "outputs": [
        {
          "internalType": "uint8",
          "name": "",
          "type": "uint8"
        }
      ],
      "stateMutability": "view",
      "type": "function"
    },
    {
      "inputs": [
        {
          "internalType": "address",
          "name": "spender",
          "type": "address"
        },
        {
          "internalType": "uint256",
          "name": "subtractedValue",
          "type": "uint256"
        }
      ],
      "name": "decreaseAllowance",
      "outputs": [
        {
          "internalType": "bool",
          "name": "",
          "type": "bool"
        }
      ],
      "stateMutability": "nonpayable",
      "type": "function"
    },
    {
      "inputs": [],
      "name": "faucet",
      "outputs": [],
      "stateMutability": "nonpayable",
      "type": "function"
    },
    {
      "inputs": [
        {
          "internalType": "address",
          "name": "spender",
          "type": "address"
        },
        {
          "internalType": "uint256",
          "name": "addedValue",
          "type": "uint256"
        }
      ],
      "name": "increaseAllowance",
      "outputs": [
        {
          "internalType": "bool",
          "name": "",
          "type": "bool"
        }
      ],
      "stateMutability": "nonpayable",
      "type": "function"
    },
    {
      "inputs": [],
      "name": "name",
      "outputs": [
        {
          "internalType": "string",
          "name": "",
          "type": "string"
        }
      ],
      "stateMutability": "view",
      "type": "function"
    },
    {
      "inputs": [],
      "name": "symbol",
      "outputs": [
        {
          "internalType": "string",
          "name": "",
          "type": "string"
        }
      ],
      "stateMutability": "view",
      "type": "function"
    },
    {
      "inputs": [],
      "name": "totalSupply",
      "outputs": [
        {
          "internalType": "uint256",
          "name": "",
          "type": "uint256"
        }
      ],
      "stateMutability": "view",
      "type": "function"
    },
    {
      "inputs": [
        {
          "internalType": "address",
          "name": "to",
          "type": "address"
        },
        {
          "internalType": "uint256",
          "name": "amount",
          "type": "uint256"
        }
      ],
      "name": "transfer",
      "outputs": [
        {
          "internalType": "bool",
          "name": "",
          "type": "bool"
        }
      ],
      "stateMutability": "nonpayable",
      "type": "function"
    },
    {
      "inputs": [
        {
          "internalType": "address",
          "name": "from",
          "type": "address"
        },
        {
          "internalType": "address",
          "name": "to",
          "type": "address"
        },
        {
          "internalType": "uint256",
          "name": "amount",
          "type": "uint256"
        }
      ],
      "name": "transferFrom",
      "outputs": [
        {
          "internalType": "bool",
          "name": "",
          "type": "bool"
        }
      ],
      "stateMutability": "nonpayable",
      "type": "function"
    }
  ],
  "transactionHash": "0x6d73212649e1746b63639bf236425fb6f6cdd48b098b0227a0e9f5f654de669c",
  "args": [
    "SimpleToken",
    "Simple"
  ],
  "numDeployments": 1,
  "solcInputHash": "f3a743515371559e8a07e1338088b587",
  "bytecode": "0x60806040523480156200001157600080fd5b50604051620019d8380380620019d8833981810160405281019062000037919062000339565b818181600390805190602001906200005192919062000217565b5080600490805190602001906200006a92919062000217565b5050506200008c306c0c9f2c9cd04674edea400000006200009460201b60201c565b505062000663565b600073ffffffffffffffffffffffffffffffffffffffff168273ffffffffffffffffffffffffffffffffffffffff16141562000107576040517f08c379a0000000000000000000000000000000000000000000000000000000008152600401620000fe90620003e4565b60405180910390fd5b6200011b600083836200020d60201b60201c565b80600260008282546200012f919062000493565b92505081905550806000808473ffffffffffffffffffffffffffffffffffffffff1673ffffffffffffffffffffffffffffffffffffffff168152602001908152602001600020600082825462000186919062000493565b925050819055508173ffffffffffffffffffffffffffffffffffffffff16600073ffffffffffffffffffffffffffffffffffffffff167fddf252ad1be2c89b69c2b068fc378daa952ba7f163c4a11628f55a4df523b3ef83604051620001ed919062000406565b60405180910390a362000209600083836200021260201b60201c565b5050565b505050565b505050565b828054620002259062000530565b90600052602060002090601f01602090048101928262000249576000855562000295565b82601f106200026457805160ff191683800117855562000295565b8280016001018555821562000295579182015b828111156200029457825182559160200191906001019062000277565b5b509050620002a49190620002a8565b5090565b5b80821115620002c3576000816000905550600101620002a9565b5090565b6000620002de620002d8846200044c565b62000423565b905082815260208101848484011115620002f757600080fd5b62000304848285620004fa565b509392505050565b600082601f8301126200031e57600080fd5b815162000330848260208601620002c7565b91505092915050565b600080604083850312156200034d57600080fd5b600083015167ffffffffffffffff8111156200036857600080fd5b62000376858286016200030c565b925050602083015167ffffffffffffffff8111156200039457600080fd5b620003a2858286016200030c565b9150509250929050565b6000620003bb601f8362000482565b9150620003c8826200063a565b602082019050919050565b620003de81620004f0565b82525050565b60006020820190508181036000830152620003ff81620003ac565b9050919050565b60006020820190506200041d6000830184620003d3565b92915050565b60006200042f62000442565b90506200043d828262000566565b919050565b6000604051905090565b600067ffffffffffffffff8211156200046a5762000469620005fa565b5b620004758262000629565b9050602081019050919050565b600082825260208201905092915050565b6000620004a082620004f0565b9150620004ad83620004f0565b9250827fffffffffffffffffffffffffffffffffffffffffffffffffffffffffffffffff03821115620004e557620004e46200059c565b5b828201905092915050565b6000819050919050565b60005b838110156200051a578082015181840152602081019050620004fd565b838111156200052a576000848401525b50505050565b600060028204905060018216806200054957607f821691505b6020821081141562000560576200055f620005cb565b5b50919050565b620005718262000629565b810181811067ffffffffffffffff82111715620005935762000592620005fa565b5b80604052505050565b7f4e487b7100000000000000000000000000000000000000000000000000000000600052601160045260246000fd5b7f4e487b7100000000000000000000000000000000000000000000000000000000600052602260045260246000fd5b7f4e487b7100000000000000000000000000000000000000000000000000000000600052604160045260246000fd5b6000601f19601f8301169050919050565b7f45524332303a206d696e7420746f20746865207a65726f206164647265737300600082015250565b61136580620006736000396000f3fe608060405234801561001057600080fd5b50600436106100b45760003560e01c806370a082311161007157806370a08231146101a357806395d89b41146101d3578063a457c2d7146101f1578063a9059cbb14610221578063dd62ed3e14610251578063de5f72fd14610281576100b4565b806306fdde03146100b9578063095ea7b3146100d757806318160ddd1461010757806323b872dd14610125578063313ce567146101555780633950935114610173575b600080fd5b6100c161028b565b6040516100ce9190610e2b565b60405180910390f35b6100f160048036038101906100ec9190610c79565b61031d565b6040516100fe9190610e10565b60405180910390f35b61010f610340565b60405161011c9190610f2d565b60405180910390f35b61013f600480360381019061013a9190610c2a565b61034a565b60405161014c9190610e10565b60405180910390f35b61015d610379565b60405161016a9190610f48565b60405180910390f35b61018d60048036038101906101889190610c79565b610382565b60405161019a9190610e10565b60405180910390f35b6101bd60048036038101906101b89190610bc5565b61042c565b6040516101ca9190610f2d565b60405180910390f35b6101db610474565b6040516101e89190610e2b565b60405180910390f35b61020b60048036038101906102069190610c79565b610506565b6040516102189190610e10565b60405180910390f35b61023b60048036038101906102369190610c79565b6105f0565b6040516102489190610e10565b60405180910390f35b61026b60048036038101906102669190610bee565b610613565b6040516102789190610f2d565b60405180910390f35b61028961069a565b005b60606003805461029a9061105d565b80601f01602080910402602001604051908101604052809291908181526020018280546102c69061105d565b80156103135780601f106102e857610100808354040283529160200191610313565b820191906000526020600020905b8154815290600101906020018083116102f657829003601f168201915b5050505050905090565b6000806103286106b1565b90506103358185856106b9565b600191505092915050565b6000600254905090565b6000806103556106b1565b9050610362858285610884565b61036d858585610910565b60019150509392505050565b60006012905090565b60008061038d6106b1565b9050610421818585600160008673ffffffffffffffffffffffffffffffffffffffff1673ffffffffffffffffffffffffffffffffffffffff16815260200190815260200160002060008973ffffffffffffffffffffffffffffffffffffffff1673ffffffffffffffffffffffffffffffffffffffff1681526020019081526020016000205461041c9190610f7f565b6106b9565b600191505092915050565b60008060008373ffffffffffffffffffffffffffffffffffffffff1673ffffffffffffffffffffffffffffffffffffffff168152602001908152602001600020549050919050565b6060600480546104839061105d565b80601f01602080910402602001604051908101604052809291908181526020018280546104af9061105d565b80156104fc5780601f106104d1576101008083540402835291602001916104fc565b820191906000526020600020905b8154815290600101906020018083116104df57829003601f168201915b5050505050905090565b6000806105116106b1565b90506000600160008373ffffffffffffffffffffffffffffffffffffffff1673ffffffffffffffffffffffffffffffffffffffff16815260200190815260200160002060008673ffffffffffffffffffffffffffffffffffffffff1673ffffffffffffffffffffffffffffffffffffffff168152602001908152602001600020549050838110156105d7576040517f08c379a00000000000000000000000000000000000000000000000000000000081526004016105ce90610f0d565b60405180910390fd5b6105e482868684036106b9565b60019250505092915050565b6000806105fb6106b1565b9050610608818585610910565b600191505092915050565b6000600160008473ffffffffffffffffffffffffffffffffffffffff1673ffffffffffffffffffffffffffffffffffffffff16815260200190815260200160002060008373ffffffffffffffffffffffffffffffffffffffff1673ffffffffffffffffffffffffffffffffffffffff16815260200190815260200160002054905092915050565b6106af303369021e19e0c9bab2400000610910565b565b600033905090565b600073ffffffffffffffffffffffffffffffffffffffff168373ffffffffffffffffffffffffffffffffffffffff161415610729576040517f08c379a000000000000000000000000000000000000000000000000000000000815260040161072090610eed565b60405180910390fd5b600073ffffffffffffffffffffffffffffffffffffffff168273ffffffffffffffffffffffffffffffffffffffff161415610799576040517f08c379a000000000000000000000000000000000000000000000000000000000815260040161079090610e6d565b60405180910390fd5b80600160008573ffffffffffffffffffffffffffffffffffffffff1673ffffffffffffffffffffffffffffffffffffffff16815260200190815260200160002060008473ffffffffffffffffffffffffffffffffffffffff1673ffffffffffffffffffffffffffffffffffffffff168152602001908152602001600020819055508173ffffffffffffffffffffffffffffffffffffffff168373ffffffffffffffffffffffffffffffffffffffff167f8c5be1e5ebec7d5bd14f71427d1e84f3dd0314c0f7b2291e5b200ac8c7c3b925836040516108779190610f2d565b60405180910390a3505050565b60006108908484610613565b90507fffffffffffffffffffffffffffffffffffffffffffffffffffffffffffffffff811461090a57818110156108fc576040517f08c379a00000000000000000000000000000000000000000000000000000000081526004016108f390610e8d565b60405180910390fd5b61090984848484036106b9565b5b50505050565b600073ffffffffffffffffffffffffffffffffffffffff168373ffffffffffffffffffffffffffffffffffffffff161415610980576040517f08c379a000000000000000000000000000000000000000000000000000000000815260040161097790610ecd565b60405180910390fd5b600073ffffffffffffffffffffffffffffffffffffffff168273ffffffffffffffffffffffffffffffffffffffff1614156109f0576040517f08c379a00000000000000000000000000000000000000000000000000000000081526004016109e790610e4d565b60405180910390fd5b6109fb838383610b91565b60008060008573ffffffffffffffffffffffffffffffffffffffff1673ffffffffffffffffffffffffffffffffffffffff16815260200190815260200160002054905081811015610a81576040517f08c379a0000000000000000000000000000000000000000000000000000000008152600401610a7890610ead565b60405180910390fd5b8181036000808673ffffffffffffffffffffffffffffffffffffffff1673ffffffffffffffffffffffffffffffffffffffff16815260200190815260200160002081905550816000808573ffffffffffffffffffffffffffffffffffffffff1673ffffffffffffffffffffffffffffffffffffffff1681526020019081526020016000206000828254610b149190610f7f565b925050819055508273ffffffffffffffffffffffffffffffffffffffff168473ffffffffffffffffffffffffffffffffffffffff167fddf252ad1be2c89b69c2b068fc378daa952ba7f163c4a11628f55a4df523b3ef84604051610b789190610f2d565b60405180910390a3610b8b848484610b96565b50505050565b505050565b505050565b600081359050610baa81611301565b92915050565b600081359050610bbf81611318565b92915050565b600060208284031215610bd757600080fd5b6000610be584828501610b9b565b91505092915050565b60008060408385031215610c0157600080fd5b6000610c0f85828601610b9b565b9250506020610c2085828601610b9b565b9150509250929050565b600080600060608486031215610c3f57600080fd5b6000610c4d86828701610b9b565b9350506020610c5e86828701610b9b565b9250506040610c6f86828701610bb0565b9150509250925092565b60008060408385031215610c8c57600080fd5b6000610c9a85828601610b9b565b9250506020610cab85828601610bb0565b9150509250929050565b610cbe81610fe7565b82525050565b6000610ccf82610f63565b610cd98185610f6e565b9350610ce981856020860161102a565b610cf2816110ed565b840191505092915050565b6000610d0a602383610f6e565b9150610d15826110fe565b604082019050919050565b6000610d2d602283610f6e565b9150610d388261114d565b604082019050919050565b6000610d50601d83610f6e565b9150610d5b8261119c565b602082019050919050565b6000610d73602683610f6e565b9150610d7e826111c5565b604082019050919050565b6000610d96602583610f6e565b9150610da182611214565b604082019050919050565b6000610db9602483610f6e565b9150610dc482611263565b604082019050919050565b6000610ddc602583610f6e565b9150610de7826112b2565b604082019050919050565b610dfb81611013565b82525050565b610e0a8161101d565b82525050565b6000602082019050610e256000830184610cb5565b92915050565b60006020820190508181036000830152610e458184610cc4565b905092915050565b60006020820190508181036000830152610e6681610cfd565b9050919050565b60006020820190508181036000830152610e8681610d20565b9050919050565b60006020820190508181036000830152610ea681610d43565b9050919050565b60006020820190508181036000830152610ec681610d66565b9050919050565b60006020820190508181036000830152610ee681610d89565b9050919050565b60006020820190508181036000830152610f0681610dac565b9050919050565b60006020820190508181036000830152610f2681610dcf565b9050919050565b6000602082019050610f426000830184610df2565b92915050565b6000602082019050610f5d6000830184610e01565b92915050565b600081519050919050565b600082825260208201905092915050565b6000610f8a82611013565b9150610f9583611013565b9250827fffffffffffffffffffffffffffffffffffffffffffffffffffffffffffffffff03821115610fca57610fc961108f565b5b828201905092915050565b6000610fe082610ff3565b9050919050565b60008115159050919050565b600073ffffffffffffffffffffffffffffffffffffffff82169050919050565b6000819050919050565b600060ff82169050919050565b60005b8381101561104857808201518184015260208101905061102d565b83811115611057576000848401525b50505050565b6000600282049050600182168061107557607f821691505b60208210811415611089576110886110be565b5b50919050565b7f4e487b7100000000000000000000000000000000000000000000000000000000600052601160045260246000fd5b7f4e487b7100000000000000000000000000000000000000000000000000000000600052602260045260246000fd5b6000601f19601f8301169050919050565b7f45524332303a207472616e7366657220746f20746865207a65726f206164647260008201527f6573730000000000000000000000000000000000000000000000000000000000602082015250565b7f45524332303a20617070726f766520746f20746865207a65726f20616464726560008201527f7373000000000000000000000000000000000000000000000000000000000000602082015250565b7f45524332303a20696e73756666696369656e7420616c6c6f77616e6365000000600082015250565b7f45524332303a207472616e7366657220616d6f756e742065786365656473206260008201527f616c616e63650000000000000000000000000000000000000000000000000000602082015250565b7f45524332303a207472616e736665722066726f6d20746865207a65726f20616460008201527f6472657373000000000000000000000000000000000000000000000000000000602082015250565b7f45524332303a20617070726f76652066726f6d20746865207a65726f2061646460008201527f7265737300000000000000000000000000000000000000000000000000000000602082015250565b7f45524332303a2064656372656173656420616c6c6f77616e63652062656c6f7760008201527f207a65726f000000000000000000000000000000000000000000000000000000602082015250565b61130a81610fd5565b811461131557600080fd5b50565b61132181611013565b811461132c57600080fd5b5056fea2646970667358221220ff3edc56b6e7effa508c4c9d1e3a8602662fc3c0c3e0db6e12f0882ea438600d64736f6c63430008040033",
  "devdoc": {
    "kind": "dev",
    "methods": {
      "allowance(address,address)": {
        "details": "See {IERC20-allowance}."
      },
      "approve(address,uint256)": {
        "details": "See {IERC20-approve}. NOTE: If `amount` is the maximum `uint256`, the allowance is not updated on `transferFrom`. This is semantically equivalent to an infinite approval. Requirements: - `spender` cannot be the zero address."
      },
      "balanceOf(address)": {
        "details": "See {IERC20-balanceOf}."
      },
      "decimals()": {
        "details": "Returns the number of decimals used to get its user representation. For example, if `decimals` equals `2`, a balance of `505` tokens should be displayed to a user as `5.05` (`505 / 10 ** 2`). Tokens usually opt for a value of 18, imitating the relationship between Ether and Wei. This is the value {ERC20} uses, unless this function is overridden; NOTE: This information is only used for _display_ purposes: it in no way affects any of the arithmetic of the contract, including {IERC20-balanceOf} and {IERC20-transfer}."
      },
      "decreaseAllowance(address,uint256)": {
        "details": "Atomically decreases the allowance granted to `spender` by the caller. This is an alternative to {approve} that can be used as a mitigation for problems described in {IERC20-approve}. Emits an {Approval} event indicating the updated allowance. Requirements: - `spender` cannot be the zero address. - `spender` must have allowance for the caller of at least `subtractedValue`."
      },
      "increaseAllowance(address,uint256)": {
        "details": "Atomically increases the allowance granted to `spender` by the caller. This is an alternative to {approve} that can be used as a mitigation for problems described in {IERC20-approve}. Emits an {Approval} event indicating the updated allowance. Requirements: - `spender` cannot be the zero address."
      },
      "name()": {
        "details": "Returns the name of the token."
      },
      "symbol()": {
        "details": "Returns the symbol of the token, usually a shorter version of the name."
      },
      "totalSupply()": {
        "details": "See {IERC20-totalSupply}."
      },
      "transfer(address,uint256)": {
        "details": "See {IERC20-transfer}. Requirements: - `to` cannot be the zero address. - the caller must have a balance of at least `amount`."
      },
      "transferFrom(address,address,uint256)": {
        "details": "See {IERC20-transferFrom}. Emits an {Approval} event indicating the updated allowance. This is not required by the EIP. See the note at the beginning of {ERC20}. NOTE: Does not update the allowance if the current allowance is the maximum `uint256`. Requirements: - `from` and `to` cannot be the zero address. - `from` must have a balance of at least `amount`. - the caller must have allowance for ``from``'s tokens of at least `amount`."
      }
    },
    "version": 1
  },
  "userdoc": {
    "kind": "user",
    "methods": {
      "faucet()": {
        "notice": "The faucet is for everyone!!"
      }
    },
    "notice": "This ERC20 is only for the testnet.",
    "version": 1
  },
  "storageLayout": {
    "storage": [
      {
        "astId": 15,
        "contract": "contracts/SimpleToken.sol:SimpleToken",
        "label": "_balances",
        "offset": 0,
        "slot": "0",
        "type": "t_mapping(t_address,t_uint256)"
      },
      {
        "astId": 21,
        "contract": "contracts/SimpleToken.sol:SimpleToken",
        "label": "_allowances",
        "offset": 0,
        "slot": "1",
        "type": "t_mapping(t_address,t_mapping(t_address,t_uint256))"
      },
      {
        "astId": 23,
        "contract": "contracts/SimpleToken.sol:SimpleToken",
        "label": "_totalSupply",
        "offset": 0,
        "slot": "2",
        "type": "t_uint256"
      },
      {
        "astId": 25,
        "contract": "contracts/SimpleToken.sol:SimpleToken",
        "label": "_name",
        "offset": 0,
        "slot": "3",
        "type": "t_string_storage"
      },
      {
        "astId": 27,
        "contract": "contracts/SimpleToken.sol:SimpleToken",
        "label": "_symbol",
        "offset": 0,
        "slot": "4",
        "type": "t_string_storage"
      }
    ],
    "types": {
      "t_address": {
        "encoding": "inplace",
        "label": "address",
        "numberOfBytes": "20"
      },
      "t_mapping(t_address,t_mapping(t_address,t_uint256))": {
        "encoding": "mapping",
        "key": "t_address",
        "label": "mapping(address => mapping(address => uint256))",
        "numberOfBytes": "32",
        "value": "t_mapping(t_address,t_uint256)"
      },
      "t_mapping(t_address,t_uint256)": {
        "encoding": "mapping",
        "key": "t_address",
        "label": "mapping(address => uint256)",
        "numberOfBytes": "32",
        "value": "t_uint256"
      },
      "t_string_storage": {
        "encoding": "bytes",
        "label": "string",
        "numberOfBytes": "32"
      },
      "t_uint256": {
        "encoding": "inplace",
        "label": "uint256",
        "numberOfBytes": "32"
      }
    }
  }
}